{
  "_format": "hh-sol-artifact-1",
  "contractName": "NFTMarket",
  "sourceName": "contracts/Market.sol",
  "abi": [
    {
      "inputs": [],
      "stateMutability": "nonpayable",
      "type": "constructor"
    },
    {
      "anonymous": false,
      "inputs": [
        {
          "indexed": true,
          "internalType": "uint256",
          "name": "itemId",
          "type": "uint256"
        },
        {
          "indexed": true,
          "internalType": "address",
          "name": "nftContract",
          "type": "address"
        },
        {
          "indexed": true,
          "internalType": "uint256",
          "name": "tokenId",
          "type": "uint256"
        },
        {
          "indexed": false,
          "internalType": "address",
          "name": "seller",
          "type": "address"
        },
        {
          "indexed": false,
          "internalType": "address",
          "name": "owner",
          "type": "address"
        },
        {
          "indexed": false,
          "internalType": "uint256",
          "name": "price",
          "type": "uint256"
        },
        {
          "indexed": false,
          "internalType": "bool",
          "name": "sold",
          "type": "bool"
        }
      ],
      "name": "MarketItemCreated",
      "type": "event"
    },
    {
      "inputs": [
        {
          "internalType": "address",
          "name": "nftContract",
          "type": "address"
        },
        {
          "internalType": "uint256",
          "name": "tokenId",
          "type": "uint256"
        },
        {
          "internalType": "uint256",
          "name": "price",
          "type": "uint256"
        }
      ],
      "name": "createMarketItem",
      "outputs": [],
      "stateMutability": "payable",
      "type": "function"
    },
    {
      "inputs": [
        {
          "internalType": "address",
          "name": "nftAddress",
          "type": "address"
        },
        {
          "internalType": "uint256",
          "name": "itemId",
          "type": "uint256"
        }
      ],
      "name": "createMarketSale",
      "outputs": [],
      "stateMutability": "payable",
      "type": "function"
    },
    {
      "inputs": [],
      "name": "fetchItemsCreated",
      "outputs": [
        {
          "components": [
            {
              "internalType": "uint256",
              "name": "itemId",
              "type": "uint256"
            },
            {
              "internalType": "address",
              "name": "nftContract",
              "type": "address"
            },
            {
              "internalType": "uint256",
              "name": "tokenId",
              "type": "uint256"
            },
            {
              "internalType": "address payable",
              "name": "seller",
              "type": "address"
            },
            {
              "internalType": "address payable",
              "name": "owner",
              "type": "address"
            },
            {
              "internalType": "uint256",
              "name": "price",
              "type": "uint256"
            },
            {
              "internalType": "bool",
              "name": "sold",
              "type": "bool"
            }
          ],
          "internalType": "struct NFTMarket.MarketItem[]",
          "name": "",
          "type": "tuple[]"
        }
      ],
      "stateMutability": "view",
      "type": "function"
    },
    {
      "inputs": [],
      "name": "fetchMarketItems",
      "outputs": [
        {
          "components": [
            {
              "internalType": "uint256",
              "name": "itemId",
              "type": "uint256"
            },
            {
              "internalType": "address",
              "name": "nftContract",
              "type": "address"
            },
            {
              "internalType": "uint256",
              "name": "tokenId",
              "type": "uint256"
            },
            {
              "internalType": "address payable",
              "name": "seller",
              "type": "address"
            },
            {
              "internalType": "address payable",
              "name": "owner",
              "type": "address"
            },
            {
              "internalType": "uint256",
              "name": "price",
              "type": "uint256"
            },
            {
              "internalType": "bool",
              "name": "sold",
              "type": "bool"
            }
          ],
          "internalType": "struct NFTMarket.MarketItem[]",
          "name": "",
          "type": "tuple[]"
        }
      ],
      "stateMutability": "view",
      "type": "function"
    },
    {
      "inputs": [],
      "name": "fetchMyNFTs",
      "outputs": [
        {
          "components": [
            {
              "internalType": "uint256",
              "name": "itemId",
              "type": "uint256"
            },
            {
              "internalType": "address",
              "name": "nftContract",
              "type": "address"
            },
            {
              "internalType": "uint256",
              "name": "tokenId",
              "type": "uint256"
            },
            {
              "internalType": "address payable",
              "name": "seller",
              "type": "address"
            },
            {
              "internalType": "address payable",
              "name": "owner",
              "type": "address"
            },
            {
              "internalType": "uint256",
              "name": "price",
              "type": "uint256"
            },
            {
              "internalType": "bool",
              "name": "sold",
              "type": "bool"
            }
          ],
          "internalType": "struct NFTMarket.MarketItem[]",
          "name": "",
          "type": "tuple[]"
        }
      ],
      "stateMutability": "view",
      "type": "function"
    },
    {
      "inputs": [],
      "name": "getListingPrice",
      "outputs": [
        {
          "internalType": "uint256",
          "name": "",
          "type": "uint256"
        }
      ],
      "stateMutability": "view",
      "type": "function"
    },
    {
      "inputs": [
        {
          "internalType": "address",
          "name": "nftAddress",
          "type": "address"
        },
        {
          "internalType": "address",
          "name": "myTokenAddress",
          "type": "address"
        },
        {
          "internalType": "uint256",
          "name": "itemId",
          "type": "uint256"
        },
        {
          "internalType": "uint256",
          "name": "amount",
          "type": "uint256"
        }
      ],
      "name": "sellItem",
      "outputs": [],
      "stateMutability": "payable",
      "type": "function"
    }
  ],
  "bytecode": "0x60806040526509184e72a00060045534801561001a57600080fd5b506001600055600380546001600160a01b0319163317905561106b806100416000396000f3fe6080604052600436106100705760003560e01c806358eb2df51161004e57806358eb2df5146100d3578063c23b139e146100e8578063db9f5519146100fb578063f064c32e1461010e57600080fd5b80630f08efe01461007557806312e85585146100a0578063202e3740146100be575b600080fd5b34801561008157600080fd5b5061008a610123565b6040516100979190610e7f565b60405180910390f35b3480156100ac57600080fd5b50600454604051908152602001610097565b3480156100ca57600080fd5b5061008a6102cb565b6100e66100e1366004610e02565b6104b1565b005b6100e66100f6366004610dd9565b610778565b6100e6610109366004610d98565b610938565b34801561011a57600080fd5b5061008a610af0565b6060600061013060015490565b9050600061013d60025490565b60015461014a9190610fed565b90506000808267ffffffffffffffff81111561017657634e487b7160e01b600052604160045260246000fd5b6040519080825280602002602001820160405280156101af57816020015b61019c610d40565b8152602001906001900390816101945790505b50905060005b848110156102c25760006005816101cd846001610fd5565b81526020810191909152604001600020600401546001600160a01b031614156102b05760006101fd826001610fd5565b600081815260056020818152604092839020835160e0810185528154815260018201546001600160a01b0390811693820193909352600282015494810194909452600381015482166060850152600481015490911660808401529081015460a0830152600681015460ff16151560c083015285519293509185908790811061029557634e487b7160e01b600052603260045260246000fd5b60209081029190910101526102ab600186610fd5565b945050505b806102ba81611004565b9150506101b5565b50949350505050565b606060006102d860015490565b905060008060005b8381101561033b5733600560006102f8846001610fd5565b81526020810191909152604001600020600401546001600160a01b0316141561032957610326600184610fd5565b92505b8061033381611004565b9150506102e0565b5060008267ffffffffffffffff81111561036557634e487b7160e01b600052604160045260246000fd5b60405190808252806020026020018201604052801561039e57816020015b61038b610d40565b8152602001906001900390816103835790505b50905060005b848110156102c25733600560006103bc846001610fd5565b81526020810191909152604001600020600401546001600160a01b0316141561049f5760006103ec826001610fd5565b600081815260056020818152604092839020835160e0810185528154815260018201546001600160a01b0390811693820193909352600282015494810194909452600381015482166060850152600481015490911660808401529081015460a0830152600681015460ff16151560c083015285519293509185908790811061048457634e487b7160e01b600052603260045260246000fd5b602090810291909101015261049a600186610fd5565b945050505b806104a981611004565b9150506103a4565b600260005414156105095760405162461bcd60e51b815260206004820152601f60248201527f5265656e7472616e637947756172643a207265656e7472616e742063616c6c0060448201526064015b60405180910390fd5b60026000558061055b5760405162461bcd60e51b815260206004820152601c60248201527f5072696365206d757374206265206174206c65617374203120776569000000006044820152606401610500565b60045434146105b85760405162461bcd60e51b8152602060048201526024808201527f5072696365206d75737420626520657175616c20746f206c697374696e6720706044820152637269636560e01b6064820152608401610500565b6105c6600180546001019055565b60006105d160015490565b90506106016040518060400160405280600b81526020016a030b2323932b9b996981d160ad1b8152506000610cd6565b6040805160e0810182528281526001600160a01b038087166020808401828152848601898152336060870181815260006080890181815260a08a018d815260c08b018381528d8452600598899052928c90209a518b55955160018b018054918b166001600160a01b0319928316179055945160028b0155915160038a018054918a1691861691909117905590516004808a01805492909916919094161790965591519286019290925592516006909401805494151560ff199095169490941790935592516323b872dd60e01b81526323b872dd926106e492913091899101610e5b565b600060405180830381600087803b1580156106fe57600080fd5b505af1158015610712573d6000803e3d6000fd5b505060408051338152600060208201819052818301879052606082015290518693506001600160a01b038816925084917f045dfa01dcba2b36aba1d3dc4a874f4b0c5d2fbeb8d2c4b34a7d88c8d8f929d1919081900360800190a4505060016000555050565b600260005414156107cb5760405162461bcd60e51b815260206004820152601f60248201527f5265656e7472616e637947756172643a207265656e7472616e742063616c6c006044820152606401610500565b60026000818155828152600560208190526040909120908101549101543482146108075760405162461bcd60e51b815260040161050090610f77565b6000838152600560205260408082206003015490516001600160a01b03909116913480156108fc02929091818181858888f1935050505015801561084f573d6000803e3d6000fd5b506040516323b872dd60e01b81526001600160a01b038516906323b872dd9061088090309033908690600401610e5b565b600060405180830381600087803b15801561089a57600080fd5b505af11580156108ae573d6000803e3d6000fd5b50505060008481526005602052604090206004810180546001600160a01b03191633179055600601805460ff19166001179055506108f0600280546001019055565b6003546004546040516001600160a01b039092169181156108fc0291906000818181858888f1935050505015801561092c573d6000803e3d6000fd5b50506001600055505050565b6000828152600560208190526040909120908101546002909101548282146109725760405162461bcd60e51b815260040161050090610f77565b6040516323b872dd60e01b81526001600160a01b038716906323b872dd906109a290309033908690600401610e5b565b600060405180830381600087803b1580156109bc57600080fd5b505af11580156109d0573d6000803e3d6000fd5b505050600085815260056020526040908190206003015490516323b872dd60e01b81526001600160a01b0388811693506323b872dd92610a1a923392909116908790600401610e5b565b602060405180830381600087803b158015610a3457600080fd5b505af1158015610a48573d6000803e3d6000fd5b505050506040513d601f19601f82011682018060405250810190610a6c9190610e34565b5060008481526005602052604090206004810180546001600160a01b03191633179055600601805460ff19166001179055610aab600280546001019055565b6003546004546040516001600160a01b039092169181156108fc0291906000818181858888f19350505050158015610ae7573d6000803e3d6000fd5b50505050505050565b60606000610afd60015490565b905060008060005b83811015610b60573360056000610b1d846001610fd5565b81526020810191909152604001600020600301546001600160a01b03161415610b4e57610b4b600184610fd5565b92505b80610b5881611004565b915050610b05565b5060008267ffffffffffffffff811115610b8a57634e487b7160e01b600052604160045260246000fd5b604051908082528060200260200182016040528015610bc357816020015b610bb0610d40565b815260200190600190039081610ba85790505b50905060005b848110156102c2573360056000610be1846001610fd5565b81526020810191909152604001600020600301546001600160a01b03161415610cc4576000610c11826001610fd5565b600081815260056020818152604092839020835160e0810185528154815260018201546001600160a01b0390811693820193909352600282015494810194909452600381015482166060850152600481015490911660808401529081015460a0830152600681015460ff16151560c0830152855192935091859087908110610ca957634e487b7160e01b600052603260045260246000fd5b6020908102919091010152610cbf600186610fd5565b945050505b80610cce81611004565b915050610bc9565b610d1b8282604051602401610cec929190610f13565b60408051601f198184030181529190526020810180516001600160e01b031663319af33360e01b179052610d1f565b5050565b80516a636f6e736f6c652e6c6f67602083016000808483855afa5050505050565b6040805160e081018252600080825260208201819052918101829052606081018290526080810182905260a0810182905260c081019190915290565b80356001600160a01b0381168114610d9357600080fd5b919050565b60008060008060808587031215610dad578384fd5b610db685610d7c565b9350610dc460208601610d7c565b93969395505050506040820135916060013590565b60008060408385031215610deb578182fd5b610df483610d7c565b946020939093013593505050565b600080600060608486031215610e16578283fd5b610e1f84610d7c565b95602085013595506040909401359392505050565b600060208284031215610e45578081fd5b81518015158114610e54578182fd5b9392505050565b6001600160a01b039384168152919092166020820152604081019190915260600190565b602080825282518282018190526000919060409081850190868401855b82811015610f0657815180518552868101516001600160a01b039081168887015286820151878701526060808301518216908701526080808301519091169086015260a0808201519086015260c09081015115159085015260e09093019290850190600101610e9c565b5091979650505050505050565b6040815260008351806040840152815b81811015610f405760208187018101516060868401015201610f23565b81811115610f515782606083860101525b506001600160a01b0393909316602083015250601f91909101601f191601606001919050565b602080825260409082018190527f506c65617365207375626d6974207468652061736b696e672070726963652069908201527f6e206f7264657220746f20636f6d706c65746520746865207075726368617365606082015260800190565b60008219821115610fe857610fe861101f565b500190565b600082821015610fff57610fff61101f565b500390565b60006000198214156110185761101861101f565b5060010190565b634e487b7160e01b600052601160045260246000fdfea2646970667358221220d38f8ab94a7dd8c604adf7ba3978046aac8200d31832c7ad55981c59d96d049d64736f6c63430008040033",
  "linkReferences": {},
  "deployedLinkReferences": {}
}